:020000040800F2
:1000000000400020B9020008C1020008C502000833
:10001000DD020008E1020008F9020008000000000B
:10002000000000000000000000000000A10C00081B
:100030001503000800000000410D00087D0D0008B8
:100040002D0300082D0300082D0300082D030008D0
:100050002D0300082D0300082D0300082D030008C0
:100060002D0300082D0300082D0300082D030008B0
:100070002D0300082D0300082D0300082D030008A0
:100080002D0300082D0300082D0300082D03000890
:100090002D0300082D0300082D0300082D03000880
:1000A0002D0300082D0300082D0300082D03000870
:1000B0002D0300082D0300082D0300082D03000860
:1000C0002D0300082D0300082D0300082D03000850
:1000D0002D0300082D030008511500082D0300080A
:1000E0002D0300082D0300082D0300082D03000830
:1000F0002D0300082D0300082D0300082D03000820
:100100000000000000000000000000002D030008B7
:100110002D0300082D0300082D0300082D030008FF
:100120002D0300082D0300082D0300082D030008EF
:100130002D0300082D03000800000000000000004F
:100140002D0300082D0300082D0300080000000007
:10015000000000000000000000000000000000009F
:1001600000000000000000002D0300082D0300081F
:100170002D03000800000000000000000000000047
:10018000000000002D03000800B583B000F0C2FBA2
:10019000384B394A1360394A136039490CE00A6810
:1001A0004B6801F10C04886803E01168196004339E
:1001B00004329842F9D82146324B9942EFD32E4B64
:1001C0001A68314B9A4204D12C4B1A682F4B9A4231
:1001D00000D0FEE7274B2E4A13602E4A13602E4BA9
:1001E0000AE0194651F8082B5B6802E00020106015
:1001F00004329A42FAD30B46284A9342F1D3244B55
:100200001B6813B9234B1B6803B1FEE700F08EFB9C
:1002100001A8694600F076FB214C224B1C1BA41060
:10022000002504E01E4B53F8253098470135AC42B9
:10023000F8DC1D4C1D4B1C1BA410002504E01A4BC0
:1002400053F8253098470135AC42F8DC0198009905
:1002500001F066F80546164C164B1C1BA41004E072
:10026000013C134B53F824309847002CF8DC284607
:1002700000F046FBBABADECA0000002050000020A1
:100280003003000848030008785634123254769838
:1002900058000020642A0020480300085803000882
:1002A00058030008580300085803000858030008C2
:1002B000580300085803000808B5FFF765FF00BFA2
:1002C00000BEFEE71EF0040F0CBFEFF30880EFF353
:1002D00009807146124A104700BEFEE700BEFEE7E5
:1002E0001EF0040F0CBFEFF30880EFF30980714696
:1002F0000C4A104700BEFEE71EF0040F0CBFEFF3E0
:100300000880EFF309807146074A104700BEFEE7F8
:1003100000BEFEE700BEFEE700BEFEE7704700003D
:10032000D9020008F50200080D03000800BEFEE730
:100330002C16000800000020540000202C16000895
:10034000000000100000001058000020682A002063
:08035000000000100000001085
:1003580070B400223EE0012393400C681C409C428C
:1003680037D10B79013BDBB2012B19D884685500D2
:100378000323AB4024EA0303836084684B79AB40D2
:100388002343836083889CB295B20123AB4024EA5F
:100398000303838084888B79AB4023439BB283809B
:1003A80003685500032404FA05F623EA06030360EC
:1003B80006680B79AB4033430360C36896B2760096
:1003C800B44023EA0404C460C468CB79AB40234337
:1003D800C36001320F2ABED970BC70478161704773
:1003E8000185704730B401F007039B009A40C908A3
:1003F800083150F821400F2505FA03F324EA0303D6
:1004080040F8213050F821301A4340F8212030BC00
:10041800704700BFC3780BB310B4184BDA68D243E7
:10042800C2F30222C2F104040F2323FA02F1437833
:1004380003FA04F283780B4013431B010278DBB202
:100448000F490A4482F800330378580903F01F0360
:10045800012202FA03F341F820300BE003785A092D
:1004680003F01F030121994002F12003044A42F8D6
:10047800231070475DF8044B704700BF00ED00E0A3
:1004880000E100E0F0B5A44B5B6803F00C03042B1B
:1004980006D0082B08D003BBA04B036000241FE044
:1004A8009E4B036000241BE09B4B5C685A68C4F3B6
:1004B8008344A31C12F4803F03D1994C04FB03F43A
:1004C80009E0954AD26A02F00F020132934CB4FB5C
:1004D800F2F403FB04F4046002E0904B0360002490
:1004E8008D494B68C3F30313DFF838E21EF8035055
:1004F800EDB2026822FA05F343604E68C6F302269D
:100508001EF80660F6B223FA06F787604E68C6F34F
:10051800C2261EF80660F6B2F340C360C96AC1F38A
:100528000411DFF804E23EF8111089B201F0100E50
:100538001FFA8EFEBEF1000F03D0B4FBF1F101618A
:1005480000E002617449C96AC1F34421DFF8D8E1C7
:100558003EF8111089B201F0100E1FFA8EFEBEF19E
:10056800000F03D0B4FBF1F1416100E042616A4938
:10057800096B11F0100F02D16849816100E08261B6
:100588006549096B11F0200F02D16449C16100E08F
:10059800C2616149096B11F4807F06D0944204D18D
:1005A800AE4202D16100016200E003625A49096B60
:1005B80011F4007F06D0944204D1AE4202D1640007
:1005C800446200E043625449096B11F0030F01D102
:1005D800836219E0504B1B6B03F00303012B01D11D
:1005E800826211E04C4B1B6B03F00303022B03D117
:1005F8004FF40043836207E0474B1B6B03F0030390
:10060800032B01D1454B8362434B1B6B13F4403FD3
:1006180001D1C7621CE0404B1B6B03F44033B3F5B8
:10062800803F01D1C26213E03B4B1B6B03F44033A4
:10063800B3F5003F03D14FF40043C36208E0364BE3
:100648001B6B03F44033B3F5403F01D1334BC36216
:10065800314B1B6B13F4402F01D107631CE02E4B69
:100668001B6B03F44023B3F5802F01D1026313E021
:10067800294B1B6B03F44023B3F5002F03D14FF430
:100688000043036308E0244B1B6B03F44023B3F5DA
:10069800402F01D1214B03631F4B1B6B13F4401FE9
:1006A80001D147631CE01C4B1B6B03F44013B3F5EB
:1006B800801F01D1426313E0174B1B6B03F44013F7
:1006C800B3F5001F03D14FF40043436308E0124B16
:1006D8001B6B03F44013B3F5401F01D10F4B436369
:1006E8000D4B1B6B13F4400F01D18763F0BD0A4B10
:1006F8001B6B03F44003B3F5800F01D18263F0BD97
:10070800054B1B6B03F44003B3F5000F0ED14FF4F8
:1007180000438363F0BD00BF0010024000127A005E
:1007280000093D002000002004000020044B1B6B42
:1007380003F44003B3F5400F01D1024B8363F0BDCE
:100748000010024000127A0021B1054B5A6910438B
:1007580058617047024A536923EA000050617047A4
:100768000010024021B1054BDA691043D861704787
:10077800024AD36923EA0000D061704700100240A2
:1007880030B591B004460D46036823F001030360B9
:10079800436823F440538A6813434360036823F48F
:1007A800B05323F00C034968EA6811432A690A43E5
:1007B80013430360836823F440736A6913438360B7
:1007C80001A8FFF75FFE1C4B9C4201D10B9A0FE07A
:1007D8001A4B9C4201D10C9A0AE0194B9C4201D158
:1007E8000D9A05E0174B9C4201D10E9A00E00F9A32
:1007F800236813F4004F06D052002968B2FBF1F3C6
:1008080001FB132204E02968B2FBF1F301FB132278
:100818002968B2EB510F00D30133226812F4004F5C
:1008280006D0C3F3420223F00F031B041B0C13432F
:100838009BB2A38111B030BD003801400044004094
:1008480000480040004C004021B1036843F0010318
:1008580003607047036823F001030360704700BF1B
:10086800C1F3080101857047808CC0F30800704708
:1008780030B4C1F30725C9B201238B40022D01D141
:10088800041D04E00446032D01D100F108041AB147
:1008980022681343236003E0226822EA03032360EB
:1008A80030BC7047C3690B4201D00120704700205B
:1008B800704700BF10B4C1F30722CCB20123A34094
:1008C800012A02D10268134006E0022A02D14268D6
:1008D800134001E082681340090C01228A40C16973
:1008E8000A4013B11AB9002002E0002000E00120FC
:1008F8005DF8044B704700BFFEE700BF01230360AB
:10090800014B0B60704700BF3000002008B500F0B5
:1009180065F8024B024A9A6008BD00BF00ED00E08E
:100928000000000808B500F08BF808BD82B000236D
:1009380001930093274A136843F480331360254BCF
:100948001B6803F400330093019B01330193009B60
:100958001BB9019BB3F5A06FF1D11E4B1B6813F4B3
:10096800003F02D00123009301E000230093009B85
:10097800012B2CD11222184B1A60A3F580535A6808
:100988005A605A685A605A6842F480625A605A68D3
:1009980022F47C125A605A6842F4E8125A601A68C3
:1009A80042F080721A600B4B1B6813F0007FFAD07C
:1009B800084B5A6822F003025A605A6842F0020251
:1009C8005A60044B5B6803F00C03082BF9D102B0A2
:1009D800704700BF001002400020024008B5144BC9
:1009E8001A6842F001021A605968124A0A405A60AD
:1009F8001A6822F0847222F480321A601A6822F48B
:100A080080221A605A6822F4FE025A60DA6A22F0DA
:100A18000F02DA62196B084A0A401A6300229A60C8
:100A2800FFF784FF4FF00062044B9A6008BD00BFD7
:100A3800001002400CC07FF8CCFC00FF00ED00E085
:100A48001D4B5B6803F00C03042B06D0082B08D061
:100A58001BBB1A4A1A4B1A6022E0184A184B1A6034
:100A68001EE0154A53685268C3F38343023312F4F5
:100A7800803F05D1134A02FB03F3114A13600FE0CC
:100A88000D4AD26A02F00F0201320C49B1FBF2F2B0
:100A980003FB02F30A4A136002E0084A084B1A6093
:100AA800054B5B68C3F30313074AD25CD2B204490F
:100AB8000B68D3400B6070470010024000127A00A8
:100AC8004800002000093D003800002070B50446A9
:100AD80000F07AFA274B1B6883B9274B274A1A601C
:100AE8000020586026494FF420534B60086053603B
:100AF8001160244A136001221E4B1A6034B110346D
:100B080014F0070F02D024F007040834621E42F2E2
:100B1800FE739A4227D818490B6801E01946134614
:100B28005A68A24202D21A68002AF7D1144A93429C
:100B38001BD00D6810351A680A605A68121B202AE3
:100B48000CD91E1972605C6070680B4A00E01A4686
:100B5800136859688142FAD333601660094A1368EA
:100B68001C1B146002E0002500E0002500F08AFA52
:100B7800284670BD600000206C2800206800002016
:100B88007428002068280020D0B170B50546A0F16F
:100B9800100600F019FA55F80C4C0A4A00E01A46FB
:100BA80013685968A142FAD345F8103C166055F805
:100BB8000C1C054A13680B44136000F063FA70BDFF
:100BC800704700BF6C2800206828002000F1080347
:100BD80043604FF0FF328260C3600361002303600B
:100BE800704700BF00230361704700BF43685A681D
:100BF8004A6042688A605A68916059604160086139
:100C0800036801330360704710B40C68B4F1FF3F08
:100C180001D1036907E000F1080300E05B685A6846
:100C28001268A242FAD95A684A6091608B6059608A
:100C380008610368013303605DF8044B704700BF27
:100C4800436882689A60836842685A6003695A6890
:100C5800824201D182685A60002202611A68013A10
:100C68001A607047034A044B1A600722043B1A6053
:100C7800704700BF3F19010014E000E04FF0807397
:100C880040F8043C40F8081C002340F80C3C40F8AD
:100C9800202C4038704700BF064B19680868B0E838
:100CA800F00F80F309884FF0000080F311884EF0B0
:100CB8000D0E70477029002002480068006880F314
:100CC800088800DF08ED00E010B5094B1A6842F407
:100CD8007F021A601A6842F07F421A60FFF7C2FF6B
:100CE8000024044B1C60FFF7E7FF204610BD00BF3F
:100CF80020ED00E04C0000204FF08052014B1A60BC
:100D0800704700BF04ED00E04FF0BF0080F311888A
:100D1800024A136801331360704700BF4C0000207B
:100D2800044A1368013B13601BB94FF0000080F3BD
:100D3800118870474C000020EFF309800C4B1A68AB
:100D480020E9F00F10602DE908404FF0BF0080F354
:100D5800118800F06DFA4FF0000080F31188BDE8AB
:100D6800084019680868B0E8F00F80F309887047F0
:100D78007029002008B54FF08052064B1A604FF0DA
:100D8800BF0080F3118800F027F94FF0000080F3CE
:100D9800118808BD04ED00E010B50446006BFFF7AC
:100DA800F3FE2046FFF7F0FE10BD00BF70B5064603
:100DB8000C464820FFF78AFE054680B11CB9B000F2
:100DC800FFF784FE00E02046286320B92846FFF795
:100DD800DBFE002503E0A521B20000F0CDFB28468C
:100DE80070BD00BF38B5044615463430102200F0F7
:100DF800CBFB002384F84330092D00D90925E5628F
:100E08006564201DFFF7EEFE04F11800FFF7EAFE07
:100E18002461C5F10A05A561646238BD38B50024AE
:100E280007E004EB84039B000E481844FFF7CEFE4E
:100E38000134092CF5D90C4D2846FFF7C7FE0B4C99
:100E48002046FFF7C3FE0A48FFF7C0FE0948FFF730
:100E5800BDFE0948FFF7BAFE084B1D60084B1C6031
:100E680038BD00BFA02800209C290020B029002000
:100E7800742900208C280020C82900208028002000
:100E8800902900202DE9F04383B080468946164614
:100E98001F4610460C99FFF789FF0446002849D0E1
:100EA800036B06F18045013D03EB850525F0070539
:100EB800009649460A9A0D9BFFF794FF284641463B
:100EC8003A46FFF7DBFE2060FFF71EFF244B1A6847
:100ED80001321A601B68012B04D1224B1C60FFF7FA
:100EE8009DFF0AE0204B1B683BB91E4B1B68DB6A61
:100EF8000A9A934201D81B4B1C60E06A1B4B1B6883
:100F0800984201D9194B1860194A136801331360C4
:100F1800184B1B68984201D9164B186000EB8000EB
:100F28008000154B1844211DFFF760FEFFF7F8FEFF
:100F3800012501E04FF0FF35012D0DD10B9B03B1C9
:100F48001C60094B1B683BB1064B1B68DB6A0A9A9D
:100F5800934201D2FFF7D0FE284603B0BDE8F083E4
:100F68006C2900207029002084280020DC2900201A
:100F78009829002094290020A028002000B585B0D9
:100F8800002300930193029303930B480B4980229B
:100F9800FFF778FF01280BD14FF0BF0080F31188CD
:100FA8000122074B1A600022064B1A60FFF78CFEDD
:100FB80005B05DF804FB00BF21120008E415000825
:100FC800842800208C290020024A1368013313600A
:100FD800704700BF6829002038B5224B1B68002BDA
:100FE8003BD1214B1A6801321A601B6843BB1F4A68
:100FF80011681F4B1868106019601E4A1368013386
:1010080013601DE06268184B1B689A4229D8251D99
:101018002846FFF715FEA36A1BB104F11800FFF775
:101028000FFEE06A144B1B68984201D9124B1860F6
:1010380000EB80008000114B18442946FFF7D6FDCD
:101048000A4B1B681B6823B1084B1B68DB68DC680C
:1010580000E00024002CD5D138BD094A13680133BB
:10106800136038BD682900208C29002080280020C2
:10107800902900208829002094290020A0280020F9
:101088007C28002070B5FFF73FFE2C4B1A68013A08
:101098001A601B68002B49D1294B1B6803BB00242D
:1010A80047E004F11800FFF7CBFD251D2846FFF7A0
:1010B800C7FDE06A234B1B68984201D9214B186091
:1010C80000EB80008000204B18442946FFF78EFD76
:1010D800E26A1E4B1B68DB6A9A4202D3012600E0D3
:1010E80000261B4B1B681BB1194BDB68DC6800E052
:1010F8000024002CD5D1174B1B6833B90AE0FFF741
:101108006BFF144A1368013B1360124B1B68002BDA
:10111800F5D101261EB9104B1B68012B08D10022FE
:101128000D4B1A60FFF7E8FD012402E0002400E0FF
:101138000024FFF7F5FD204670BD00BF6829002098
:101148006C29002094290020A02800207029002064
:10115800742900207C280020C429002070B500B321
:101168000446FFF731FF114D2B681C44104E3068C0
:101178000430FFF765FD33685C602B689C4206D23B
:101188000C4B186831680431FFF73EFD06E00A4B46
:101198001868074B19680431FFF736FDFFF772FF2F
:1011A80000E0002008B9FFF7A7FD70BD8C290020DA
:1011B800702900209029002080280020134B1B68EC
:1011C80013B310B5FFF700FF114B1C68FFF75AFF68
:1011D800CCB1FFF799FD0E4B1B681BB10C4BDB68BC
:1011E800DC6800E00024201DFFF72AFD094A136887
:1011F800013B1360054A1368013B1360FFF790FD3C
:101208002046FFF7C9FD10BD704700BF88280020A1
:101218008C2800206C29002008B5FFF7CFFF034B6E
:101228001B68012BF9D9FFF767FDF6E7A028002016
:101238001B4B1B683BB101221A4B1A6070471A4AB4
:101248001368013B1360184B1B6803EB83039B0077
:10125800164AD358002BF2D010B4134B1B6814460F
:101268009A00D118890021444868406848601A44A7
:10127800920008322244904205D1416803EB830270
:1012880092002244516003EB83039B00074A1344F6
:101298005B68DA68064B1A605DF8044B704700BF5C
:1012A80068290020C429002094290020A0280020B3
:1012B8007029002008B500F06BF800F001F9144817
:1012C800144900F073F9F0B11148C0F8800000210A
:1012D800802200F051F94FF090408021FFF77EF80E
:1012E8004FF090404021FFF779F841F28830FFF73E
:1012F80035FF4FF090408021FFF772F84FF0904093
:101308004021FFF76DF86420FFF728FFD7E700BFFB
:10131800E0290020EC15000810B586B0174B184AD4
:101328005A60F021174A82F8231000249C60072293
:101338001A604FF400300121FFF706FAC023049326
:1013480001238DF814308DF8164003238DF81530DD
:101358008DF817404FF0904004A9FEF7F9FF0223DB
:101368000093019402940394074808498022234675
:10137800FFF788FDFFF702FEFEE700BF10E000E080
:101388003F19010000ED00E0BD120008F415000847
:1013980070B58AB03A4BC3F880304FF4C0200121B1
:1013A800FFF7D2F94FF400300121FFF7DBF92023D2
:1013B800019301258DF8085000248DF80A408DF816
:1013C8000B4003268DF809604FF0904001A9FEF705
:1013D800BFFF802301938DF808508DF80A408DF8DF
:1013E8000B408DF80960274801A9FEF7B1FF4FF0BF
:1013F800904002210722FEF7F5FF4FF0904031465A
:101408000722FEF7EFFF0423019302238DF808302B
:101418008DF80A408DF80B508DF809604FF0904018
:1014280001A9FEF795FF082301934FF0904001A909
:10143800FEF78EFF4FF4E133049305940694079466
:1014480009940C230893104E304604A9FFF798F925
:1014580030460E492A46FFF70BFA26238DF80C3042
:101468008DF80D408DF80E408DF80F5003A8FEF74B
:10147800D1FF30462946FFF7E7F90AB070BD00BF33
:10148800E029002000040048004400400501050050
:1014980070B506460D4600240CE03157074889B25E
:1014A800FFF7DEF905488021FFF7FCF90028F9D09D
:1014B8000134E4B2AC42F0DB70BD00BF0044004030
:1014C80010B54FF090402021FEF788FF1848802182
:1014D800FEF784FF4FF47A70FFF740FE154CC4F80E
:1014E800804015480621FFF7D3FFC820FFF736FED6
:1014F800C4F8804011480D21FFF7CAFFC820FFF744
:101508002DFEC4F880400E480D21FFF7C1FFC8200A
:10151800FFF724FEC4F880400A480521FFF7B8FF0A
:101528004FF47A70FFF71AFEC4F8804010BD00BF70
:1015380000040048E0290020FC15000804160008F3
:10154800141600082416000808B508480849FFF7CB
:10155800B1F948B10548FFF787F9064AD2F8803053
:10156800591CC2F88010187008BD00BF0044004024
:1015780005010500E029002002440346934202D0F9
:1015880003F8011BFAE7704710B5034632B111F8AA
:10159800014B03F8014B013A002CF7D11A4493424E
:1015A80003D0002103F8011BF9E710BD30B503781B
:1015B80023B90B78002B18BF002030BD034601303B
:1015C8001A783AB100228C5C34B19D5CA542F5D101
:1015D8000132F8E7104630BD184630BD49444C4545
:1015E800000000006F70656E000000007465737481
:1015F8000000000053462C310D0A000053532C43C1
:10160800303030303030300D0A00000053522C3367
:10161800323030303030300D0A000000522C310D9D
:041628000A000000B4
:10162C007856341200000100020004000600080085
:10163C000A000C0010002000400080000001000097
:10164C00000000000102030401020304060708095C
:10165C005C00002000000000000000000000000002
:10166C00010203040607080900A24A04AAAAAAAAAE
:04167C0032547698D6
:040000050800018965
:00000001FF
